:04000000FEEF7FF0A0
:10100000002353544152540D0A0023454E440D0A07
:1010100000CDCCCC3D0D0A00256400000450800BAF
:101020000D6E04500424136E03AE19EF08F01BEF8D
:1010300008F01CEF08F013801350D8B422EF08F02A
:1010400024EF08F037EF08F01328D8A42AEF08F0AF
:101050002CEF08F034EF08F0000E016E000E026E67
:10106000000E036E000E046E038E3FEF08F0000EBC
:10107000016E000E026E000E036E000E046E08502C
:10108000800B0D1A08500824126E07AE4AEF08F0C4
:101090004CEF08F04DEF08F012801250D8B453EF27
:1010A00008F055EF08F068EF08F01228D8A45BEFBD
:1010B00008F05DEF08F065EF08F0000E056E000E19
:1010C000066E000E076E000E086E078E70EF08F0B9
:1010D000000E056E000E066E000E076E000E086E06
:1010E0001250D8B476EF08F078EF08F080EF08F0EF
:1010F0001350D8A47EEF08F080EF08F08AEF08F0D4
:10110000000E016E000E026E000E036E000E046EE5
:1011100020EF0AF007500102F3CF18F0F4CF19F0D6
:1011200018500E6E0F6A106A116A1950146E156A03
:10113000166A176A06500202F3CF18F0F4CF19F0BE
:1011400018500E26000E0F221022112219501426BC
:10115000000E15221622172205500302F3CF18F0B5
:10116000F4CF19F018500E26000E0F221022112273
:1011700019501426000E15221622172210C011F045
:101180000FC010F00EC00FF00E6A05500202F3CF30
:1011900018F0F4CF19F018500E2619500F22000E37
:1011A0001022000E112206500102F3CF18F0F4CFE6
:1011B00019F018500E2619500F22000E1022000EA2
:1011C000112210C011F00FC010F00EC00FF00E6A07
:1011D00005500102F3CF18F0F4CF19F018500E2685
:1011E00019500F22000E1022000E11220750020289
:1011F000F3CF18F0F4CF19F0185014261950152217
:10120000000E1622000E172206500302F3CF18F02C
:10121000F4CF19F01850142619501522000E16227A
:10122000000E172207500302F3CF18F0F4CF19F085
:101230001850096E19500A6E0B6A0C6A0BC00CF03C
:101240000AC00BF009C00AF0096A095014260A50B6
:1012500015220B5016220C5017220EC009F00FC099
:101260000AF010C00BF011C00CF0190E3DEF09F0A0
:10127000D8900C320B320A320932E82E38EF09F0DE
:10128000095014260A5015220B5016220C50172212
:1012900010C011F00FC010F00EC00FF00E6A125007
:1012A00013C009F00A6A0926000E0A22820E0924D8
:1012B000186EFF0E0A20196E73EF09F0D8901436DD
:1012C00015361636173611AE68EF09F06AEF09F0D9
:1012D0006BEF09F01480D8900E360F3610361136A9
:1012E0001806D8A0190616AE78EF09F07AEF09F0C3
:1012F0005EEF09F0126A11AE80EF09F082EF09F09B
:10130000A6EF09F0FF0E0E14096EFF0E0F140A6E01
:10131000FF0E10140B6E7F0E11140C6E09500A1084
:101320000B100C10D8B497EF09F099EF09F09DEF6E
:1013300009F0010E126EA6EF09F014A0A2EF09F059
:10134000A4EF09F0A6EF09F099EF09F01250D8B414
:10135000ACEF09F0AEEF09F0D2EF09F0010E142660
:10136000000E15221622172217A0B9EF09F0BBEFC5
:1013700009F0D2EF09F014C009F015C00AF016C048
:101380000BF017C00CF00C340C320B320A3209325D
:1013900009C014F00AC015F00BC016F00CC017F00D
:1013A000184A192A19BEDDEF09F0195008E118286A
:1013B000D8A0DDEF09F0DFEF09F0E9EF09F0000E4A
:1013C000146E000E156E800E166E7F0E176E16EFE1
:1013D0000AF019BEF6EF09F0195006E11804D8B06A
:1013E000F4EF09F0F6EF09F001EF0AF0000E146EC9
:1013F000000E156E000E166E000E176E0D6A16EFBB
:101400000AF018C013F0FF0E1416FF0E15167F0E0B
:101410001616000E171613A010EF0AF012EF0AF0BE
:1014200013EF0AF0168ED8901330176E0D50171266
:1014300014C001F015C002F016C003F017C004F08C
:1014400012001250800B1F6E12501224266E11AE25
:101450002CEF0AF02EEF0AF02FEF0AF0268026502C
:10146000D8B435EF0AF037EF0AF04BEF0AF0262830
:10147000D8A43DEF0AF03FEF0AF047EF0AF0000E64
:101480000F6E000E106E000E116E000E126E118E99
:10149000126A53EF0AF0000E0F6E000E106E000E6F
:1014A000116E000E126E1650800B1F1A1650162465
:1014B000276E15AE5EEF0AF060EF0AF061EF0AF0FA
:1014C00027802750D8B467EF0AF069EF0AF07DEF64
:1014D0000AF02728D8A46FEF0AF071EF0AF079EF2D
:1014E0000AF0000E136E000E146E000E156E000E44
:1014F000166E158E166A85EF0AF0000E136E000E3A
:10150000146E000E156E000E166E1350141015108A
:101510001610D8A48EEF0AF090EF0AF0A8EF0AF0A8
:10152000000E0F6E000E106E000E116E000E126E89
:10153000800E11127F0E12121F5012120FC00FF0E8
:1015400010C010F011C011F012C012F0E7EF0BF054
:101550002650D8A4AEEF0AF0B0EF0AF0BAEF0AF0C6
:10156000000E0F6E000E106E000E116E000E126E49
:10157000E7EF0BF0275026C017F0186A175E000E31
:10158000185A7F0E1724206E000E1820216E0FC0EF
:101590001BF010C01CF011C01DF012C01EF0000E98
:1015A0000F6E000E106E000E116E000E126E000E09
:1015B000226E000E236E000E246E000E256E276A2A
:1015C0001AEF0BF02750D8B4E8EF0AF0EAEF0AF070
:1015D00001EF0BF0D8901B361C361D361E36D89006
:1015E0000F3610361136123625AEF9EF0AF0FBEF42
:1015F0000AF0FCEF0AF00F80D8902236233624360A
:10160000253613501B5C14501C5815501D5816508D
:101610001E58D8A00EEF0BF010EF0BF019EF0BF0E7
:10162000258C13501B5E14501C5A15501D5A165011
:101630001E5A272A190E276420EF0BF022EF0BF019
:10164000E2EF0AF01B501C101D101E10D8B42BEF37
:101650000BF02DEF0BF045EF0BF0228045EF0BF078
:10166000D8900F3610361136123625AE3AEF0BF001
:101670003CEF0BF03DEF0BF00F80D8902236233675
:10168000243625362006D8A0210611AE4AEF0BF0ED
:101690004CEF0BF030EF0BF0276A25AE52EF0BF05A
:1016A00054EF0BF078EF0BF0FF0E2214176EFF0EC5
:1016B0002314186EFF0E2414196E7F0E25141A6E53
:1016C0001750181019101A10D8B469EF0BF06BEFFF
:1016D0000BF06FEF0BF0010E276E78EF0BF00FA001
:1016E00074EF0BF076EF0BF078EF0BF06BEF0BF085
:1016F0002750D8B47EEF0BF080EF0BF0A4EF0BF087
:10170000010E0F26000E10221122122212A08BEFC2
:101710000BF08DEF0BF0A4EF0BF00FC017F010C023
:1017200018F011C019F012C01AF01A341A32193216
:101730001832173217C00FF018C010F019C011F08E
:101740001AC012F0204A212A21BEAFEF0BF021501F
:1017500008E12028D8A0AFEF0BF0B1EF0BF0BCEF01
:101760000BF0000E216E2068000E0F6E000E106E42
:10177000000E116E000E126E21BEC9EF0BF021504B
:1017800006E12004D8B0C7EF0BF0C9EF0BF0D5EF9E
:101790000BF0216A000E206E000E0F6E000E106E10
:1017A000000E116E000E126E1F6A20C026F026A0D9
:1017B000DCEF0BF0DEEF0BF0E1EF0BF0118EE2EF60
:1017C0000BF0119ED8902630126E9CEF0AF012009A
:1017D000700ED312F3EF0BF0340E4D6EF20EE82EB6
:1017E000FED74D2EFCD7D3A4F8EF0BF0FAEF0BF099
:1017F000ECEF0BF076EC12F034EC11F0340E4D6E91
:10180000F20EE82EFED74D2EFCD7F5EC10F066EC6C
:1018100011F020EEC9F0190EDE6AE806FDE20001C3
:10182000EC6B230EE36F410EE46F3D0E4E6EE10E46
:101830004D6E400EE82EFED74D2EFCD74E2EFAD719
:101840000001EE6B000EED6FED51EE11D8A42BEF01
:101850000CF02DEF0CF02FEF0CF098EC11F0ECC029
:101860004DF04D464D46C2504D18830B4D18C26E7B
:101870001A0E4D6EF80EE82EFED74D2EFCD700D076
:101880000001EB6B000EEA6FC282C2B24AEF0CF0AD
:101890004CEF0CF045EF0CF00001EA4BEB2BEBBFEB
:1018A0005BEF0CF0EB5109E1040EEA5DD8A05BEFB1
:1018B0000CF05DEF0CF044EF0CF0C282C2B263EFAB
:1018C0000CF065EF0CF05EEF0CF0C4504E6EC350A0
:1018D0004D6E0001ED51020DF350C90FD96EDA6A59
:1018E0004DC0DEFF4EC0DDFF0A0EEC617AEF0CF05A
:1018F0007CEF0CF086EF0CF0300EE56FEC51300F02
:10190000E66F3A0EE76FE86BA0EF0CF0ECC001F069
:10191000026A046A0A0E036EE9EC0FF00150300F00
:101920000001E56FECC001F0026A046A0A0E036E62
:1019300049EC10F00150300F0001E66F81EF0CF020
:10194000ED51020DF350C90FD96EDA6ADECF2AF0DD
:10195000DDCF2BF0E30E2C6E0BEC0FF00001EC2B27
:101960000C0EED19EE11D8A4B8EF0CF0BAEF0CF094
:10197000BCEF0CF0C3EC11F00001ED4BEE2BEEBF11
:10198000CBEF0CF0EE5109E10D0EED5DD8A0CBEFE1
:101990000CF0CDEF0CF024EF0CF0EC6B0B0E4E6E58
:1019A000260E4D6E5E0EE82EFED74D2EFCD74E2E27
:1019B000FAD720EF0CF0FEEF7FF0096E0950D8B493
:1019C000E4EF0CF0E6EF0CF008EF0DF004BEEDEFE5
:1019D0000CF0EBEF0CF008EF0DF001C005F002C0C9
:1019E00006F003C007F004C008F0051E061E071E1F
:1019F000081E052A000E06220722082205C00BF049
:101A000006C00CF007C00DF008C00EF010EF0DF08E
:101A100001C00BF002C00CF003C00DF004C00EF0CA
:101A20000150021003100410D8A419EF0DF01BEFA1
:101A30000DF025EF0DF0000E016E000E026E000E8F
:101A4000036E000E046EB6EF0DF0960E0A6E2FEFC9
:101A50000DF00A2AD8900E320D320C320B32000EE5
:101A60000B14056E000E0C14066E000E0D14076E9E
:101A7000FE0E0E14086E0550061007100810D8A4AC
:101A800044EF0DF046EF0DF029EF0DF054EF0DF09F
:101A90000A2A010E0B26000E0C220D220E22D890CF
:101AA0000E320D320C320B32000E0B14056E000E8E
:101AB0000C14066E000E0D14076EFF0E0E14086E49
:101AC0000550061007100810D8A469EF0DF06BEF51
:101AD0000DF048EF0DF073EF0DF00A06D8900B36BD
:101AE0000C360D360E360DBE78EF0DF07AEF0DF098
:101AF00082EF0DF0020E0A6080EF0DF082EF0DF024
:101B00006DEF0DF00AB087EF0DF089EF0DF08AEF61
:101B10000DF00D9ED8900A320AC005F0066A076AD9
:101B2000086A05C008F0076A066A056A05500B12C4
:101B300006500C1207500D1208500E120950D8B45E
:101B4000A4EF0DF0A6EF0DF0AEEF0DF004BEADEF7B
:101B50000DF0ABEF0DF0AEEF0DF00E8E0BC001F0FF
:101B60000CC002F00DC003F00EC004F012000C50C7
:101B7000D96EDA6ADFCFF6FF0800F550250AD8A43F
:101B8000C4EF0DF0C6EF0DF078EF0EF00C50D96EEB
:101B9000DA6ADF2A506A000E4F6E4FC053F0516868
:101BA00052680C50D96EDA6ADF50106E10C0F6FF22
:101BB0000800F550640AD8B4E0EF0DF0E2EF0DF044
:101BC000EEEF0DF010C0F6FF0800F550690AD8A43A
:101BD000ECEF0DF0EEEF0DF072EF0EF00D50D96E50
:101BE000DA6A020EDF26DF5CD96EDA6ADECF11F028
:101BF000DECF12F00C50D96EDA6A1028DF6E200E9C
:101C0000156E12BE06EF0EF009EF0EF0010E0AEF90
:101C10000EF0000E0F6E15061550600FD96EDA6AC1
:101C200011C001F012C002F0046A0A0E036E49EC02
:101C300010F001C007F002C008F02CEC12F00750C1
:101C4000300FDF6E11C001F012C002F0046A0A0EFC
:101C5000036EE9EC0FF001C011F002C012F0115058
:101C60001210D8B436EF0EF038EF0EF040EF0EF051
:101C70001550D8A43EEF0EF040EF0EF00BEF0EF033
:101C80001550D8B446EF0EF048EF0EF067EF0EF0A7
:101C90000F50D8B44EEF0EF050EF0EF067EF0EF08D
:101CA00015061550600FD96EDA6A2D0EDF6E67EFDC
:101CB0000EF01550600FD96EDA6ADF500E6E0E50BE
:101CC000016E026A0BC003F0A0EC10F0152A200E82
:101CD0001518D8A46EEF0EF070EF0EF059EF0EF05D
:101CE00087EF0EF00C50D96EDA6ADF2A87EF0EF01C
:101CF0000C50D96EDA6ADFCFF6FF0800F550016E9E
:101D0000026A0BC003F0A0EC10F072EF0EF01200AC
:101D10001C341D34236E2350D8A491EF0EF093EFA2
:101D20000EF09DEF0EF0000E1A6E000E1B6E000EF0
:101D30001C6E000E1D6E0AEF0FF01AC01EF01BC0C5
:101D40001FF01CC020F01DC021F0200EADEF0EF0E2
:101D5000D890213220321F321E32E82EA8EF0EF02A
:101D60001E50226E1C8EFF0E1A16FF0E1B16FF0E43
:101D70001C16000E1D16960E235E23BEC4EF0EF039
:101D8000C2EF0EF0DAEF0EF02350800A970FD8B0B2
:101D9000CCEF0EF0CEEF0EF0D0EF0EF093EF0EF092
:101DA000D8901D321C321B321A32233ED0EF0EF077
:101DB000F2EF0EF01F0E2364E0EF0EF0E2EF0EF0F4
:101DC000EAEF0EF093EF0EF0D8901A361B361C3661
:101DD0001D3623062350D8A4F0EF0EF0F2EF0EF0DC
:101DE000E4EF0EF02250D8B4F8EF0EF0FAEF0EF058
:101DF00002EF0FF01D1E1C1E1B1E1A6C000E1B2274
:101E00001C221D221AC01AF01BC01BF01CC01CF0A3
:101E10001DC01DF012002AC001F02BC002F0036AA1
:101E2000046A000EDDEC0CF001C00FF002C010F0EF
:101E300003C011F004C012F0000E136E000E146EF9
:101E40007A0E156E440E166E21EC0AF00FC041F0AA
:101E500010C042F011C043F012C044F041C00FF076
:101E600042C010F043C011F044C012F0CD0E136E0A
:101E7000CC0E146ECC0E156E3D0E166E21EC0AF0D3
:101E80000FC045F010C046F011C047F012C048F036
:101E9000000E056E000E066E7A0E076E440E086E7A
:101EA00045C001F046C002F047C003F048C004F04E
:101EB0000EEC08F001C01AF002C01BF003C01CF0C9
:101EC00004C01DF088EC0EF01AC049F01BC04AF0A7
:101ED00049C04BF04AC04CF02D0E1A6E180E1B6E06
:101EE0004BC01CF04CC01DF046EC12F02D0E016EE4
:101EF0002CC002F07DEC0FF01200150EF66E0900FA
:101F0000F5CF03F00900F5CF04F00A00F5CF05F096
:101F1000076A000E066E9CEF0FF09EA892EF0FF07E
:101F200094EF0FF08DEF0FF002500624D96EDA6AAD
:101F3000DF50AD6E064A072A02500624D96EDA6ACF
:101F4000DF50D8A4A6EF0FF0A8EF0FF08DEF0FF041
:101F5000096A000E086EBCEF0FF09EA8B2EF0FF0FA
:101F6000B4EF0FF0ADEF0FF001500824D96EDA6A2C
:101F7000DF50AD6E084A092A01500824D96EDA6A8A
:101F8000DF50D8A4C6EF0FF0C8EF0FF0ADEF0FF0A1
:101F90000B6A000E0A6EDCEF0FF09EA8D2EF0FF076
:101FA000D4EF0FF0CDEF0FF00A50030FD96EDA6ABD
:101FB000DF50AD6E0A4A0B2A0A50030FD96EDA6A57
:101FC000DF50D8A4E6EF0FF0E8EF0FF0CDEF0FF001
:101FD0001200066A04BEF1EF0FF0EFEF0FF0F7EF1B
:101FE0000FF0036C041ED8B0042A010E066E02BE68
:101FF000FEEF0FF0FCEF0FF004EF10F0016C021E8B
:10200000D8B0022A010E061A086A000E076E0350A5
:102010000410D8B40EEF10F010EF10F038EF10F0FD
:10202000010E056E18EF10F0D89003360436052A1D
:1020300004AE1DEF10F01FEF10F014EF10F0D89069
:10204000073608360350015C04500258D8A02BEF25
:1020500010F02DEF10F032EF10F00350015E04503D
:10206000025A0780D89004320332052E1FEF10F079
:102070000650D8B43EEF10F040EF10F044EF10F0EF
:10208000076C081ED8B0082A07C001F008C002F08B
:102090001200066A02BE51EF10F04FEF10F057EF3A
:1020A00010F0016C021ED8B0022A010E066E04BEAA
:1020B0005EEF10F05CEF10F062EF10F0036C041EA6
:1020C000D8B0042A03500410D8B469EF10F06BEFB5
:1020D00010F08FEF10F0010E056E73EF10F0D89036
:1020E00003360436052A04AE78EF10F07AEF10F0CC
:1020F0006FEF10F00350015C04500258D8A083EF3A
:1021000010F085EF10F089EF10F00350015E0450DD
:10211000025AD89004320332052E7AEF10F006509E
:10212000D8B495EF10F097EF10F09BEF10F0016C22
:10213000021ED8B0022A01C001F002C002F0120053
:102140000350D8B4A6EF10F0A8EF10F0B0EF10F0E5
:102150000350D8A4AEEF10F0B0EF10F0B5EF10F0D0
:10216000015083EC12F0F4EF10F00350D96EDA6AEC
:10217000090ED926DE50DE10D8B4C1EF10F0C3EF3F
:1021800010F0DCEF10F00350D96EDA6A090ED92690
:102190000350E16EE26A020EE126DE50E65CE65094
:1021A000800A086EDE50800A0858D8B0DAEF10F0C6
:1021B000DCEF10F0F4EF10F00350D96EDA6A020E83
:1021C000D926DF50046E0350D96EDA6ADF5004243A
:1021D000D96EDA6A01C0DFFF0350D96EDA6A020EE7
:1021E000D926DE2A000EDD2212000F0138819280EE
:1021F000388392823885928438879286388B928A87
:102200003C8196803C8396823C8596843985938474
:10221000398793863983938239899388398193806A
:10222000C280C150F30B0809C16E428F4251CF0BDF
:102230001009426FC050F80B0209C06EC08E380EF4
:10224000C0122BEF11F0060E016E300EE82EFED7F5
:10225000012EFCD700D00F0142AD31EF11F033EF6A
:1022600011F023EF11F0120020EE9AF010EE02F0C0
:10227000170EDBCFE3FFE806FCE21B6A000E1A6EC6
:1022800051EF11F09EA847EF11F049EF11F042EF26
:1022900011F01A50020FD96EDA6ADF50AD6E1A4A89
:1022A0001B2A1A50020FD96EDA6ADF50D8A45BEFEE
:1022B00011F05DEF11F042EF11F01A0E016EF80E01
:1022C000E82EFED7012EFCD700D0120020EEB2F08F
:1022D00010EE02F0160EDBCFE3FFE806FCE21A6A0E
:1022E000000E196E83EF11F09EA879EF11F07BEFCD
:1022F00011F074EF11F01950020FD96EDA6ADF5045
:10230000AD6E194A1A2A1950020FD96EDA6ADF50D7
:10231000D8A48DEF11F08FEF11F074EF11F01A0EB9
:10232000016EF80EE82EFED7012EFCD700D0120069
:10233000010EF66E20EE01F0080E0900F5CFDEFF6B
:10234000E806FBE20B6A000E0A6EB6EF11F09EA8DB
:10235000ACEF11F0AEEF11F0A7EF11F00A50010F42
:10236000D96EDA6ADF50AD6E0A4A0B2A0A50010FA5
:10237000D96EDA6ADF50D8A4C0EF11F0C2EF11F0C5
:10238000A7EF11F012000A0EF66E20EE01F0060E15
:102390000900F5CFDEFFE806FBE2096A000E086ED1
:1023A000E1EF11F09EA8D7EF11F0D9EF11F0D2EFC5
:1023B00011F00850010FD96EDA6ADF50AD6E084A8D
:1023C000092A0850010FD96EDA6ADF50D8A4EBEF62
:1023D00011F0EDEF11F0D2EF11F01200BC0EF66E1D
:1023E000240EF76E000EF86E00EE9AF010EE2FF04D
:1023F0000900F5CFEEFFE550E150FAE100EE60F0A4
:102400003A0EEE6AE806FDE1536A526A516A506A72
:102410004F6A000EF86E100EF76E0001E8EF0BF039
:1024200017C019F01CEF12F016C00BF0190E0C6E4D
:1024300018C00DF0B7EC0DF019C0F6FF0800F5500C
:102440000009D8A426EF12F028EF12F014EF12F0D2
:10245000176A000E166E120008BE31EF12F033EF4D
:1024600012F039EF12F007C007F008C008F045EF8E
:1024700012F007C009F008C00AF0091E0A1E094A36
:102480000A2A09C007F00AC008F012001C0E1E6ECE
:102490001AC01FF0226A000E216E296A000E286EF3
:1024A0001F0E166E1BC017F01E0E186E10EC12F0E9
:1024B0001A502124D96EDA6ADF6A1200554152544B
:1024C00020736574757020737563636573736675C7
:1024D0006C0D0A0041444320736574757020737558
:0B24E000636365737366756C0D0A0082
:1024EC000F013A9D949CB898B896100EAF6EAB8EB7
:0C24FC00AC8AAC98AC9CAC8412001200BE
:04FFFC00EEEF11F023
:00000001FF
